:0400000007EF00F016
:10000800398209ED00F072EF05F00600FACF18F01A
:10001800FBCF19F0E9CF1AF0EACF1BF0E1CF1CF0C3
:10002800E2CF1DF0D9CF1EF0DACF1FF0F3CF20F0CA
:10003800F4CF21F0F6CF22F0F7CF23F0F8CF24F059
:10004800F5CF25F0F2A08AD0F29E000E0001956F40
:10005800020E166E090E156E460EE82EFED7152EE8
:10006800FCD7162EFAD7000E0001996F000E986F74
:10007800000199BF08D0000199511DE12F0E000120
:10008800985DD8B018D0600E00019825D96E000E82
:1000980000019921DA6E000E81BA010EDF6E040E9E
:1000A800156EAA0EE82EFED7152EFCD700F000011B
:1000B800984B992BDDD7000E0001976F000E966FB5
:1000C800000E0001996F000E986F000199BF08D0CB
:1000D8000001995123E1100E0001985DD8B01ED09F
:1000E80098C015F0600E00019825D96E000E000129
:1000F8009921DA6EDF50166E176A152A03D0D89048
:1001080016361736152EFBD71650000196131750C2
:10011800000197130001984B992BD7D70001962916
:1001280004E100019729D8B416D096C001F097C011
:1001380002F0FDEC01F00001A36FB1C00EF0B2C0F7
:100148000FF096C010F097C011F094EC02F00EC0BA
:10015800A1F00FC0A2F0F290F28E95D0F2A493D045
:10016800000E00019B6F000E9A6F00019BBF08D024
:1001780000019B511BE1060E00019A5DD8B016D014
:10018800AA0E00019A25D96E000E00019B21DA6E95
:10019800A40E00019A25E16E000E00019B21E26E7B
:1001A800DFCFE7FF00019A4B9B2BDFD7090E000139
:1001B800B06103D00001B02901D0000E0001B06F7A
:1001C800000E00019B6F000E9A6F00019BBF08D0C4
:1001D80000019B510BE1060E00019A5DD8B006D0D4
:1001E8009AC095F000019A4B9B2BEFD70001B051B4
:1001F800D8A405D0A2EC05F0AAEC05F00FD0050EA6
:100208000001B019D8A40AD00001B1510001B211FF
:10021800D8A404D0A4EC05F0A0EC05F0040E00016D
:10022800B06526D010D0560E0001A76F21D0560E0B
:100238000001A66F1DD0560E0001A56F19D0560EED
:100248000001A46F15D0B1C015F0B2C016F0165059
:10025800000AD8A40DD01550010AD8B4E4D7030A6F
:10026800D8B4E5D7010AD8B4E6D7070AD8B4E7D78F
:10027800A40E0C6E000E0D6EB00E0E6E000E0F6EFC
:100288008BEC05F0F29425C0F5FF24C0F8FF23C0DD
:10029800F7FF22C0F6FF21C0F4FF20C0F3FF1FC004
:1002A800DAFF1EC0D9FF1DC0E2FF1CC0E1FF1BC062
:1002B800EAFF1AC0E9FF19C0FBFF18C0FAFF39921C
:1002C8001100ACEC05F001EC05F0010E0001AA6F7D
:1002D800020E0001AB6F030E0001AC6F040E0001AB
:1002E800AD6F050E0001AE6F060E0001AF6F9EECFC
:1002F80005F0A1C0B1F0A2C0B2F060D0AA0E000112
:100308009C6F000E00019D6F010E00019E6F1EEC98
:1003180003F0EFD70001A351ABEC04F00009D8B407
:10032800E8D7030E0001A361E4D7A3C0ADF0000E27
:100338000001A26F020E40D00001A369DAD70001C4
:10034800A351ABEC04F00009D8B4D3D7020E0001D6
:10035800AC6104D0090E0001A36504D0040E0001AD
:10036800A361C7D7A3C0ACF0000E0001A26F030EB3
:1003780023D00001A351ABEC04F00009D8B4B9D7DD
:10038800060E0001A361B5D7A3C0ABF0000E0001B3
:10039800A26F040E11D00001A351ABEC04F00009C8
:1003A800D8B4A7D70A0E0001A361A3D7A3C0AAF0A7
:1003B800000E0001A26F010EA16FBED7B1C09FF061
:1003C800B2C0A0F00001A051000AD8A492D7000141
:1003D8009F51000AD8B492D7010AD8B49BD7030A10
:1003E800D8B4ADD7010AD8B4C4D7070AD8B4D3D77C
:1003F80080D735D00A0E056E12000B0E056E12005E
:100408000C0E056E12000D0E056E12000E0E056E16
:100418001200010E056E1200020E056E1200030E88
:10042800056E1200040E056E1200050E056E120010
:10043800060E056E1200070E056E1200080E056EF8
:100448001200090E056E1200000E056E12000F0E46
:10045800056E1200100E056E1200FF0E120001C08C
:1004680003F002C004F00450AA0AD8B416D0010A56
:10047800D8B41ED0050AD8B423D0140AD8B428D0CA
:10048800010AD8B42AD0510AD8B432D0010AD8B453
:1004980034D0050AD8B439D0E0D70350BA0AD8B452
:1004A800D6D7500AD8B4AFD7040AD8B4AFD7D5D75F
:1004B8000350AA0AD8B4BFD7100AD8B49BD7CDD74F
:1004C8000350BA0AD8B4C6D7500AD8B4ABD7C5D7E0
:1004D8000350BA0AD8B4B8D7C0D70350AA0AD8B4B8
:1004E800A4D7040AD8B49BD7140AD8B4A1D7B5D7CF
:1004F8000350AA0AD8B481D7B0D70350AE0AD8B4EB
:100508007FD7140AD8B485D7A8D70350AE0AD8B471
:1005180083D7140AD8B495D7500AD8B48FD79DD7A3
:100528000E500F10D8A407D0BA0E101804E1AA0E66
:100538001118D8B43ED00E040F10D8A40CD0EE0E6B
:10054800101809E1AA0E1118D8A405D0000E000150
:10055800A26F020E32D0020E0E180F10D8A40CD0C3
:10056800EE0E101809E1AA0E1118D8A405D0000E35
:100578000001A26F030E21D0030E0E180F10D8A48D
:100588000CD0EE0E101809E1AA0E1118D8A405D047
:10059800000E0001A26F040E10D0040E0E180F10EA
:1005A800D8A40DD0EE0E10180AE1AA0E1118D8A47E
:1005B80006D0000E0001A26F010EA16F36D00E0406
:1005C8000F10D8B40FD0020E0E180F10D8B40AD0DE
:1005D800030E0E180F10D8B405D0040E0E180F1005
:1005E800D8A423D0BA0E101820E1AE0E1118D8A442
:1005F8001CD0000E0001A26F000EA16F000E126E3B
:100608000001AB510A0DF3500001AA25136E000139
:10061800AD510A0DF3500001AC25146E13C008F05B
:1006280014C009F0125024EC05F0A1C00EF0A2C0CD
:100638000FF01200810E376E3750EEEC03F0346E77
:10064800830E376E3750EEEC03F0366E850E376E3C
:100658003750EEEC03F0386E36500F0B9CC0D9FFC4
:100668009DC0DAFFDF6E000120EE01F09C51D92613
:100678009D51DA2236380F0B0F0BDF6E00019E05F5
:10068800D8A40AD0000120EE04F09C51D9269D512F
:10069800DA22010EDF6E15D03850F00B316E326A57
:1006A8000F0E3126000E3222040E336E32343232EF
:1006B8003132332EFBD731503814356E0D0E35607C
:1006C80015D0000120EE02F09C51D9269D51DA2266
:1006D80038500F0BDF6E000120EE03F09C51D92635
:1006E8009D51DA2238380F0B0F0B13D0000120EE82
:1006F80002F09C51D9269D51DA2238500D0BDF6E3D
:10070800000120EE03F09C51D9269D51DA22385081
:10071800F00BDF6E000120EE05F09C51D9269D51AB
:10072800DA22480EDF6E1200016E22D0300E12005F
:100738006D0E1200790E1200330E12005B0E1200BD
:100748005F0E1200700E12007F0E1200730E120060
:100758007E0E12003E0E1200670E1200370E1200B7
:100768003D0E1200150E1200000E12007F0E120030
:100778000150000AD8B4ECD7010AD8B4D7D7030A75
:10078800D8B4D6D7010AD8B4D5D7070AD8B4D4D79D
:10079800010AD8B4D3D7030AD8B4D2D7010AD8B437
:1007A800D1D70F0AD8B4D0D7010AD8B4CFD74D0AB9
:1007B800D8B4D6D70C0AD8B4D1D7060AD8B4D2D769
:1007C8001E0AD8B4C9D7050AD8B4C4D7030AD8B4FE
:1007D800CBD7CCD72D6E000E2E6E9CEC05F02D508D
:1007E80025EC04F09AEC05F0000E306E000E2F6E2A
:1007F80030BE06D0305021E1080E2F5CD8B01DD095
:100808008094060EE82EFED700D02FC02BF080A6CD
:1008180003D02C6A2C2A01D02C6A2B2A02D0D8901B
:100828002C362B2EFCD72C502E128084100EE82E3E
:10083800FED700D02F4A302ADBD792EC05F02E5095
:100848001200286E98EC05F0000E2A6E000E296E34
:100858002ABE06D02A5021E1080E295CD8B0120021
:1008680029C026F028C027F0262A02D0D89027329F
:10087800262EFCD72730D8A002D0808601D08096BB
:100888008084100EE82EFED700D08094060EE82E45
:10089800FED700D0294A2A2ADBD71200036EA6EC1D
:1008A80005F0000E056E000E046E05BE06D005505C
:1008B80021E1080E045CD8B0120004C001F003C0A6
:1008C80002F0012A02D0D8900232012EFCD7023061
:1008D800D8A002D0808601D080968084100EE82EA1
:1008E800FED700D08094060EE82EFED700D0044A2A
:1008F800052ADBD71200036E010E046E000E076E88
:10090800000E066E07BE06D0075020E1080E065CF2
:10091800D8B01200000E056E06C001F003C002F048
:10092800012A02D0D8900232012EFCD70230D8B06A
:1009380004A002D0010E056E05B002D0819601D048
:10094800818681988188064A072ADCD71200266E9C
:100958002650D8B423D02604D8B420D0020E2618A6
:10096800D8B41CD0030E2618D8B418D0040E2618F4
:10097800D8B414D0050E2618D8B410D0060E2618F0
:10098800D8B40CD0070E2618D8B408D0080E2618EC
:10099800D8B404D0090E2618D8A402D0010E12002B
:1009A800000E1200026E000E016E0A0E026003D0E5
:1009B80002C001F020D0140E026004D00250F60FDD
:1009C800100918D01E0E026004D00250EC0F200946
:1009D80011D0280E026004D00250E20F30090AD06C
:1009E800320E026004D00250D80F400903D00250E2
:1009F800CE0F5009016E0150120093969398000E85
:100A0800BA6E000EC66E0F0EC16E880EF26E000E24
:100A1800F26EF28EF286F28A850EF16EF180820E07
:100A2800D56E93929294929A9296000E0001B26FAC
:100A3800000EB16F000E0001A26F000EA16F120030
:100A48000A6E0A50D6EC04F00B6E0850D6EC04F08F
:100A58000C6E09505CEC05F00D6E0BC006F0800EB4
:100A68007FEC05F00CC006F0820E7FEC05F00DC09F
:100A780006F0840E7FEC05F01200000E0B6E000EDF
:100A88000A6E0BBE06D00B5012E1060E0A5CD8B0F7
:100A980012000A500824D96E0B500920DA6EDF5074
:100AA80098EC03F07FEC04F00A4A0B2AEAD712000C
:100AB800026E000E016E0A0E026003D002C001F041
:100AC8000BD0140E026004D00250F60F100903D0A8
:100AD8000250EC0F2009016E0150120000EEA1F047
:100AE800100EEE6AE806FDE139903992000EF86EB4
:100AF800000165EF01F0076EA8EC05F0075052EC15
:100B080004F0065052EC04F095EC05F012000CC00D
:100B180008F00DC009F041EC05F01200809A8094AD
:100B28001200809A80941200929612009286120007
:100B3800808A120081901200819012008182120036
:100B48008192120092961200808A1200818012000F
:020B5800120089
:020000040020DA
:08000000FFFFFFFFFFFFFFFF00
:020000040030CA
:0E000000000C1F1FFF8185FF0FC00FE00F4097
:00000001FF
