:0400000007EF00F016
:1000080038825DED06F098EF0FF00E500F10D8A46F
:100018000BD0BA0E101808E1AA0E1118D8A404D0F3
:10002800000E2D6E010EABD20E500F10D8B40FD0AB
:10003800060E0E180F10D8B40AD0150E0E180F1091
:10004800D8B405D0180E0E180F10D8A40BD0BA0EBD
:10005800101808E1AB0E1118D8A404D0000E2D6EAC
:10006800050E8DD20E500F10D8B40FD0050E0E18F5
:100078000F10D8B40AD0150E0E180F10D8B405D02A
:10008800180E0E180F10D8A40BD0AE0E101808E1D9
:10009800EB0E1118D8A404D0000E2D6E060E6FD2E8
:1000A8000E500F10D8B40FD0050E0E180F10D8B47C
:1000B8000AD0060E0E180F10D8B405D0150E0E185B
:1000C8000F10D8A40BD0EE0E101808E1AA0E1118C4
:1000D800D8A404D0000E2D6E180E51D20E040F10A5
:1000E800D8A40BD0EE0E101808E1AA0E1118D8A447
:1000F80004D0000E2D6E020E42D2020E0E180F1002
:10010800D8A40BD0EE0E101808E1AA0E1118D8A426
:1001180004D0000E2D6E030E32D2030E0E180F10EF
:10012800D8A40BD0EE0E101808E1AA0E1118D8A406
:1001380004D0000E2D6E040E22D2040E0E180F10DD
:10014800D8A407D0EE0E101804E1AA0E1118D8B4DE
:1001580067D7050E0E180F10D8B40FD0060E0E185C
:100168000F10D8B40AD0150E0E180F10D8B405D039
:10017800180E0E180F10D8A40BD0BA0E101808E1DC
:10018800BA0E1118D8A404D0000E2D6E000EF7D1A7
:100198000E040F10D8B40FD0020E0E180F10D8B4DA
:1001A8000AD0030E0E180F10D8B405D0040E0E187E
:1001B8000F10D8A423D0BA0E101820E1AE0E1118D3
:1001C800D8A41CD0000E2D6E000E2C6E000E146EDE
:1001D8000001CE510A0DF3500001CD25156E000126
:1001E800D0510A0DF3500001CF25166E15C008F046
:1001F80016C009F014504AEC0FF0D5D2050E0E18AF
:100208000F10D8A40ED0AA0E10180BE1EA0E111880
:10021800D8A407D0000E2D6E0B0E2C6ED7EC0FF065
:10022800C2D20B0E0E180F10D8A408D00001D3515B
:10023800D8A404D0000E2D6E0C0EA1D10C0E0E18F1
:100248000F10D8A40DD036503318D8A409D0375081
:100258000001D319D8A404D0000E2D6E0D0E8FD135
:100268000D0E0E180F10D8B405D00C0E0E180F1066
:10027800D8A407D0BA0E101804E1AE0E1118D8B4DD
:10028800EDD6050E0E180F10D8A40BD0BA0E101804
:1002980008E1AA0E1118D8A404D0000E2D6E070E7E
:1002A8006ED1070E0E180F10D8B40FD0080E0E1806
:1002B8000F10D8B40AD0090E0E180F10D8B405D0F4
:1002C8000A0E0E180F10D8A41AD0BA0E101817E17B
:1002D800AE0E1118D8A413D0000E2D6E050E2C6E7C
:1002E8000001CE510A0DF3500001CD25376E0001F3
:1002F800D0510A0DF3500001CF25366E54D2060EA8
:100308000E180F10D8A40ED0AA0E10180BE1EA0E82
:100318001118D8A407D0000E2D6E120E2C6ED7EC33
:100328000FF041D2120E0E180F10D8A40DD00001F4
:10033800D351D8A409D0000E2D6E130E2C6E32C0E6
:1003480033F031C0D3F02FD2130E0E180F10D8A4EB
:100358000BD03350D8A408D00001D351D8A404D06E
:10036800000E2D6E140E0BD1140E0E180F10D8A4FB
:1003780007D0BA0E101804E1AE0E1118D8B48CD6F6
:10038800060E0E180F10D8A40BD0BA0E101808E1DC
:10039800AA0E1118D8A404D0000E2D6E0E0EEFD0A0
:1003A8000E0E0E180F10D8B40FD00F0E0E180F1017
:1003B800D8B40AD0100E0E180F10D8B405D0110EEC
:1003C8000E180F10D8A41AD0BA0E101817E1AE0ED6
:1003D8001118D8A413D0000E2D6E060E2C6E000135
:1003E800D0510A0DF3500001CF25326E0001CE51D5
:1003F8000A0DF3500001CD25316ED5D1060E0E1829
:100408000F10D8B409D0050E0E180F10D8B404D0A8
:100418000E500F10D8A40BD0EA0E101808E1AA0E3F
:100428001118D8A404D0000E2D6E150EA8D0150EE4
:100438000E180F10D8A40BD0AA0E101808E1EA0E57
:100448001118D8A404D0000E2D6E160E98D0160ED2
:100458000E180F10D8A40BD0BA0E101808E1AA0E67
:100468001118D8A404D0000E2D6E170E88D0170EC0
:100478000E180F10D8A407D0AA0E101804E1EA0E1F
:100488001118D8B4E0D7160E0E180F10D8B405D02E
:10049800170E0E180F10D8A407D0BA0E101804E1C2
:1004A800AE0E1118D8B4BFD7180E0E180F10D8A456
:1004B8000BD0AA0E101808E1EA0E1118D8A404D01F
:1004C800000E2D6E1A0E0FD0180E0E180F10D8A48D
:1004D8000ED0BA0E10180BE1AA0E1118D8A407D026
:1004E800000E2D6E1D0E2C6E000E2E6E5CD11A0E97
:1004F8000E180F10D8A41CD03350D8A419D000015E
:10050800D351D8A415D0000E2D6E1B0E2C6E630E81
:1005180025D02E50020D010EF326000EF4229C0E5B
:10052800F324D96E000EF420DA6EDF50336E18D043
:100538001B0E0E180F10D8A424D03350D8A421D0E5
:100548000001D351D8A41DD02E502F5CD8A014D0B0
:10055800000E2D6E1A0E2C6E2E2A660E356ED9D709
:100568002E50020D9C0EF324D96E000EF420DA6E84
:10057800DF500001D36F17D1000E2D6E1C0E2C6EAC
:1005880012D11D0E0E180F10D8B40FD01E0E0E1853
:100598000F10D8B40AD01F0E0E180F10D8B405D0FB
:1005A800200E0E180F10D8A410D0BA0E10180DE196
:1005B800AE0E1118D8A409D0000E2D6E210E2C6E87
:1005C800560E0001D16F500ECFD01D0E0E180F1011
:1005D800D8B40FD01E0E0E180F10D8B40AD01F0EA4
:1005E8000E180F10D8B405D0200E0E180F10D8A46E
:1005F800BED0BA0E101803E1AA0E1118D8A4B7D0AD
:10060800000E2D6E1D0E2C6E660E3518D8A454D013
:100618002E50020D9C0EF324D96E000EF420DA6ED3
:100628000001CE510A0DF3500001CD25DF6E2E508A
:10063800020D010EF326000EF4229C0EF324D96E4F
:10064800000EF420DA6E0001D0510A0DF3500001BB
:10065800CF25DF6E630E356E2E50126E136A010EB3
:100668001226000E132213BE06D0135006E10A0EFE
:10067800125CD8B002D0430E0DD0010E2E24016EAC
:10068800026A000E0222000E046E0A0E036EDBECF4
:100698000CF001500001D26F010E2E24016E026A87
:1006A800000E0222000E046E0A0E036E5EEC0DF0C0
:1006B80001500001D16F77D02E50020D9C0EF3240B
:1006C800D96E000EF420DA6E0001CE510A0DF350F7
:1006D8000001CD25DF6E2E50020D010EF326000E0F
:1006E800F4229C0EF324D96E000EF420DA6E000179
:1006F800D0510A0DF3500001CF25DF6E140E2E6085
:1007080002D02E2A02D0000E2E6E010E2E24016E6B
:10071800026A000E0222000E046E0A0E036E5EECE0
:100728000DF001500001D16F660E356E2E50126E1D
:10073800136A010E1226000E132213BE06D01350A0
:1007480006E10A0E125CD8B002D0460E0DD0010E9A
:100758002E24016E026A000E0222000E046E0A0E9A
:10076800036EDBEC0CF001500001D26F1CD0210E9F
:100778000E180F10D8B405D0220E0E180F10D8A4DA
:1007880012D0BA0E10180FE1AE0E1118D8A40BD063
:10079800000E2D6E180E2C6E0001CE510A0DF3506E
:1007A8000001CD252F6E2CC00EF02DC00FF01200C9
:1007B800DDEC0FF096EC0DF0010E0001CD6F020E8E
:1007C8000001CE6F030E0001CF6F040E0001D06F41
:1007D800050E0001D16F060E0001D26F010E010156
:1007E800126FB7EC0FF02CC0D4F02DC0D5F0EFD1BC
:1007F8000D0E3418D8A402D0010E05D00E0E3418F0
:10080800D8A403D0000E0101126FCD0E0101076FAD
:10081800000E0101086F12C109F1C5EC09F0E3D718
:10082800345058EC0EF00009D8B4DDD7030E34600C
:10083800DAD734C0D0F0000E2D6E020EC6D134685F
:10084800D2D7345058EC0EF00009D8B4CCD7020EE9
:100858000001CF6103D0090E346403D0040E346064
:10086800C2D734C0CFF0000E2D6E030EAED1345077
:1008780058EC0EF00009D8B4B6D7060E3460B3D7DA
:1008880034C0CEF0000E2D6E040E9FD1345058ECBB
:100898000EF00009D8B4A7D70A0E3460A4D734C024
:1008A800CDF0000E2D6E010E90D10A0E0001D36F0F
:1008B800CD0E0101006F000E0101016F93EC0CF0E9
:1008C80092D7CD0E0101006F000E0101016F93EC6C
:1008D8000CF089D7CD0E0101006F000E0101016FE8
:1008E80093EC0CF080D7CD0E0101006F000E0101D2
:1008F800016F93EC0CF077D7345058EC0EF00009E8
:10090800D8B471D7060E34606ED734C0D0F0000E5C
:100918002D6E080E5AD1345058EC0EF00009D8B498
:1009280062D7060E34605FD734C0CFF0000E2D6E4C
:10093800090E4BD1345058EC0EF00009D8B453D7F7
:10094800060E346050D734C0CEF0000E2D6E0A0E5D
:100958003CD1345058EC0EF00009D8B444D7060EF8
:10096800346041D734C0CDF0000E2D6E070E2DD166
:100978000A0E0001D36FCD0E0101006F000E0101B8
:10098800016F4BEC0CF02FD7CD0E0101006F000E5C
:100998000101016F4BEC0CF026D7CD0E0101006F61
:1009A800000E0101016F4BEC0CF01DD7CD0E0101BB
:1009B800006F000E0101016F4BEC0CF014D734509E
:1009C80058EC0EF00009D8B40ED7060E34600BD7D9
:1009D80034C0D0F0000E2D6E0F0EF7D0345058EC06
:1009E8000EF00009D8B4FFD60A0E3460FCD634C025
:1009F800CFF0000E2D6E100EE8D0345058EC0EF0EB
:100A08000009D8B4F0D6060E3460EDD634C0CEF066
:100A1800000E2D6E110ED9D0345058EC0EF000098E
:100A2800D8B4E1D60A0E3460DED634C0CDF0000E5C
:100A38002D6E0E0ECAD0CBEC0FF0000E0001D36F56
:100A4800000E336E000E0001C56FCD0E0101086F58
:100A5800000E0101096F55EC0BF0C5D6C9EC0FF07B
:100A6800CD0E0101086F000E0101096F55EC0BF066
:100A7800BAD6CBEC0FF0CD0E0101086F000E0101C4
:100A8800096F55EC0BF0AFD6CBEC0FF0000E000160
:100A9800D36F000E336E000E0001C56F000E2E6E70
:100AA800660E356ECD0E0101046F000E0101056F53
:100AB800D4C006F12EC007F1ECEC07F094D6C9ECCF
:100AC8000FF0CD0E0101046F000E0101056FD4C0B7
:100AD80006F12EC007F1ECEC07F085D6C9EC0FF053
:100AE800CD0E0101046F000E0101056FD4C006F19F
:100AF8002EC007F1ECEC07F076D6CBEC0FF0CD0E5C
:100B08000101046F000E0101056FD4C006F12EC06B
:100B180007F1ECEC07F067D6345058EC0EF00009FA
:100B2800D8B461D6060E34605ED634C0D0F0000E5C
:100B38002D6E1E0E4AD0345058EC0EF00009D8B471
:100B480052D60A0E34604FD634C0CFF0000E2D6E48
:100B58001F0E3BD0345058EC0EF00009D8B443D6E1
:100B6800060E346040D634C0CEF0000E2D6E200E36
:100B78002CD0345058EC0EF00009D8B434D60A0EF4
:100B8800346031D634C0CDF0000E2D6E1D0E1DD050
:100B9800345058EC0EF00009D8B425D60A0E34604B
:100BA80022D634C0CEF0000E2D6E220E0ED0345058
:100BB80058EC0EF00009D8B416D60A0E346013D6D5
:100BC80034C0CDF0000E2D6E210E2C6E38D6D4C058
:100BD80010F1D5C011F101011151000AD8A403D6B2
:100BE80001011051000AD8B403D6010AD8B418D6A6
:100BF800030AD8B426D6010AD8B439D6070AD8B415
:100C080045D6010AD8B451D6030AD8B4B1D6010AD8
:100C1800D8B472D60F0AD8B47ED6010AD8B48AD608
:100C2800030AD8B496D6010AD8B44BD6070AD8B462
:100C380051D6010AD8B457D6030AD8B4C0D6010A87
:100C4800D8B4CCD61F0AD8B4D8D6010AD8B4E4D6BA
:100C5800030AD8B499D6010AD8B49FD6070AD8B4DB
:100C6800A5D6010AD8B4E7D6030AD8B4F7D6010A3C
:100C7800D8B4FFD60F0AD8B407D7020AD8B41FD7FA
:100C8800010AD8B42BD7070AD8B437D7010AD8B481
:100C980043D7030AD8B44FD7010AD8B45BD73F0A61
:100CA800D8B467D7010AD8B473D7030AD8B47FD7A2
:100CB8009AD50600FACF1AF0FBCF1BF0E9CF1CF04B
:100CC800EACF1DF0E1CF1EF0E2CF1FF0D9CF20F020
:100CD800DACF21F0F3CF22F0F4CF23F0F6CF24F0CF
:100CE800F7CF25F0F8CF26F0F5CF27F0F2A089D07E
:100CF800F29E000E0001956F020E186E080E176E18
:100D0800D20EE82EFED7172EFCD7182EFAD7000ED3
:100D18000001996F000E986F000199BF08D000017B
:100D280099511DE12F0E0001985DD8B018D0600EC2
:100D380000019825D96E000E00019921DA6E000E87
:100D480081BA010EDF6E040E176EC30EE82EFED7B1
:100D5800172EFCD700F00001984B992BDDD7000E19
:100D68000001976F000E966F000E0001996F000E3C
:100D7800986F000199BF08D00001995123E1100E26
:100D88000001985DD8B01ED098C017F0600E000121
:100D98009825D96E000E00019921DA6EDF50186E81
:100DA800196A172A03D0D89018361936172EFBD788
:100DB8001850000196131950000197130001984B21
:100DC800992BD7D70001962904E100019729D8B4B7
:100DD80015D096C001F097C002F05EEC0AF0346EB0
:100DE800D4C00EF0D5C00FF096C010F097C011F027
:100DF80009EC00F00EC02CF00FC02DF0F290F28E2E
:100E0800C9D0F2A4A4D0000E00019B6F000E9A6F07
:100E180000019BBF08D000019B511BE1060E000199
:100E28009A5DD8B016D0CD0E00019A25D96E000E65
:100E380000019B21DA6EC70E00019A25E16E000EB3
:100E480000019B21E26EDFCFE7FF00019A4B9B2B4D
:100E5800DFD7090E0001C46103D00001C42901D005
:100E6800000E0001C46F000E00019B6F000E9A6F08
:100E780000019BBF08D000019B510BE1060E000149
:100E88009A5DD8B006D09AC095F000019A4B9B2B7A
:100E9800EFD7D4C001F0D5C002F0C4C003F002EC13
:100EA8000FF0D4C001F0D5C002F0C4C003F026ECA6
:100EB8000FF00001C451D8A403D0D3EC0FF00CD02C
:100EC800050E0001C419D8A407D00001D4510001AF
:100ED800D511D8B4D5EC0FF00001C651D8B405D05F
:100EE80081A002D0819001D08180040E0001C465E8
:100EF80026D010D0560E0001CA6F21D0560E000120
:100F0800C96F1DD0560E0001C86F19D0560E0001CA
:100F1800C76F15D0D4C017F0D5C018F01850000A04
:100F2800D8A40DD01750010AD8B4E4D7030AD8B40E
:100F3800E5D7010AD8B4E6D7070AD8B4E7D7C70E69
:100F4800086E000E096E67EC0FF0F29423D09EA095
:100F580021D0630E0001C56103D00001C52B19D053
:100F6800000E0001C56FD30E016E000E026E000167
:100F7800D451ECEC08F0D4C00EF0D5C00FF0000E40
:100F8800116E000E106E09EC00F00EC02CF00FC0B0
:100F98002DF09E9027C0F5FF26C0F8FF25C0F7FF6B
:100FA80024C0F6FF23C0F4FF22C0F3FF21C0DAFFFC
:100FB80020C0D9FF1FC0E2FF1EC0E1FF1DC0EAFF2D
:100FC8001CC0E9FF1BC0FBFF1AC0FAFF38921100D2
:100FD8000001D35183EC0EF00F0B04C1D9FF05C1FA
:100FE800DAFFDF6E010120EE01F00451D926055128
:100FF800DA220001D35183EC0EF00101086F0101E0
:1010080008390F0B0F0BDF6E010120EE02F00451BF
:10101800D9260551DA22335083EC0EF00F0BDF6E20
:10102800010120EE03F00451D9260551DA2233508C
:1010380083EC0EF00101086F010108390F0B0F0B4B
:10104800DF6E210E01010619D8B405D0220E010168
:101058000619D8A413D0010120EE04F00451D926B2
:101068000551DA22560EDF6E010120EE05F004511B
:10107800D9260551DA22500EDF6E1200660E351899
:10108800D8A453D0010107510101086F096B010E63
:1010980001010827000E0923010109BF08D0010139
:1010A80009510EE10A0E0101085DD8B009D001010D
:1010B80020EE05F00451D9260551DA22460E19D042
:1010C800010120EE05F00451D9260551DA22010E5E
:1010D800010107250101006F0101016B000E0123C9
:1010E800000E0101036F0A0E026FAEEC0BF0010156
:1010F8000051DF6E010120EE04F00451D92605519C
:10110800DA22010E010107250101006F0101016BBF
:10111800000E0123000E0101036F0A0E026F01EC9D
:101128000CF001010051DF6E1200010107510101AD
:10113800086F096B010E01010827000E0923010140
:1011480009BF08D0010109510EE10A0E0101085D2D
:10115800D8B009D0010120EE05F00451D926055177
:10116800DA22430E19D0010120EE05F00451D926E8
:101178000551DA22010E010107250101006F010165
:10118800016B000E0123000E0101036F0A0E026FAE
:10119800AEEC0BF001010051DF6E010120EE04F00E
:1011A8000451D9260551DA22010E01010725010152
:1011B800006F0101016B000E0123000E0101036F96
:1011C8000A0E026F01EC0CF001010051DF6E1200F3
:1011D800046E050E0418D8A407D001C0D9FF02C0B8
:1011E800DAFF0A0EDF6E12000B0E0418D8A41AD00C
:1011F80001C0D9FF02C0DAFFDF50D8B4120001C025
:10120800D9FF02C0DAFF030EDF6406D001C0D9FFA0
:1012180002C0DAFFDF06120001C0D9FF02C0DAFF00
:10122800DF0612000C0E0418D8A41BD001C0D9FF89
:1012380002C0DAFF3B0EDF6006D001C0D9FF02C052
:10124800DAFFDF2A120001C0D9FF02C0DAFF000E60
:10125800DF6E3B0E336002D0332A1200000E336E6D
:101268001200060E0418D8A407D001C0D9FF02C086
:10127800DAFF0A0EDF6E1200120E0418D8A41AD074
:1012880001C0D9FF02C0DAFFDF50D8B4120001C094
:10129800D9FF02C0DAFF030EDF6406D001C0D9FF10
:1012A80002C0DAFFDF06120001C0D9FF02C0DAFF70
:1012B800DF061200130E0418D8A418D001C0D9FFF5
:1012C80002C0DAFFDF50D8B406D001C0D9FF02C08F
:1012D800DAFFDF0612003350D8B41200330601C01B
:1012E800D9FF02C0DAFF3B0EDF6E1200150E04189C
:1012F800D8A40BD001C0D9FF02C0DAFF000EDF6E00
:10130800000E306E000E336E1200160E0418D8A4AC
:1013180018D001C0D9FF02C0DAFF3B0EDF6006D04B
:1013280001C0D9FF02C0DAFFDF2A120001C0D9FFCD
:1013380002C0DAFF000EDF6E3B0E33601200332A64
:1013480012001A0E0418D8B404D01B0E0418D8A41E
:10135800120001C0D9FF02C0DAFFDF50D8B406D0AE
:1013680001C0D9FF02C0DAFFDF0612003350D8B43B
:101378001200330601C0D9FF02C0DAFF3B0EDF6E50
:101388001200810E01010E6F01010E511DEC0DF0CE
:1013980001010B6F830E01010E6F01010E511DEC4F
:1013A8000DF001010D6F850E01010E6F01010E5147
:1013B8001DEC0DF001010F6F01010D510F0B07C15D
:1013C800D9FF08C1DAFFDF6E010120EE01F00751F5
:1013D800D9260851DA2201010D390F0B0F0BDF6EE8
:1013E80001010905D8A40AD0010120EE04F0075133
:1013F800D9260851DA22010EDF6E1CD0010120EE39
:1014080004F00751D9260851DA22020EDF6E0FC107
:101418000AF10F0E01010A1701010F390F0B0F0B0B
:101428000A0DF35001010A2501010C6F0D0E01018F
:101438000C6117D0010120EE02F00751D92608519E
:10144800DA2201010F510F0BDF6E010120EE03F0CC
:101458000751D9260851DA2201010F390F0B0F0B5A
:101468001ED0010120EE02F00751D9260851DA22D8
:1014780001010F510F0BFE0FDF6E010120EE03F08B
:101488000751D9260851DA220FC10AF101010A3B96
:101498000F0E0A170F0E01010A1701010A05DF6E68
:1014A800010120EE05F00751D9260851DA22480E2D
:1014B800DF6E120035D00A0E056E12000B0E056E97
:1014C80012000C0E056E12000D0E056E12000E0EA7
:1014D800056E1200010E056E1200020E056E120056
:1014E800030E056E1200040E056E1200050E056E41
:1014F8001200060E056E1200070E056E1200080E89
:10150800056E1200090E056E1200000E056E12001F
:101518000F0E056E1200100E056E1200FF0E12005F
:1015280001C003F002C004F00450AA0AD8B416D0CF
:10153800010AD8B41ED0050AD8B423D0140AD8B4E6
:1015480028D0010AD8B42AD0510AD8B432D0010A16
:10155800D8B434D0050AD8B439D0E0D70350BA0A81
:10156800D8B4D6D7500AD8B4AFD7040AD8B4AFD7AE
:10157800D5D70350AA0AD8B4BFD7100AD8B49BD776
:10158800CDD70350BA0AD8B4C6D7500AD8B4ABD707
:10159800C5D70350BA0AD8B4B8D7C0D70350AA0AD7
:1015A800D8B4A4D7040AD8B49BD7140AD8B4A1D7FE
:1015B800B5D70350AA0AD8B481D7B0D70350AE0A1A
:1015C800D8B47FD7140AD8B485D7A8D70350AE0AA1
:1015D800D8B483D7140AD8B495D7500AD8B48FD7BB
:1015E8009DD7016E26D0300E12006D0E1200790EB6
:1015F8001200330E12005B0E12005F0E1200700E06
:1016080012007F0E1200730E12007E0E12003E0EA4
:101618001200670E1200370E12003D0E1200150E52
:101628001200000E1200470E12004E0E12007F0E1E
:1016380012000150000AD8B4E8D7010AD8B4D3D7A9
:10164800030AD8B4D2D7010AD8B4D1D7070AD8B474
:10165800D0D7010AD8B4CFD7030AD8B4CED7010A55
:10166800D8B4CDD70F0AD8B4CCD7010AD8B4CBD7C1
:101678004A0AD8B4DAD7070AD8B4CFD7020AD8B4F6
:10168800D2D70E0AD8B4C7D7060AD8B4C8D71E0A04
:10169800D8B4BFD7050AD8B4BAD7030AD8B4C1D7C3
:1016A800C6D70001C551D9EC0EF00F0B08C1D9FF00
:1016B80009C1DAFFDF6E010120EE01F00851D926D9
:1016C8000951DA220001C551D9EC0EF001010A6F67
:1016D80001010A390F0B0F0BDF6E010120EE02F03A
:1016E8000851D9260951DA220001D35183EC0EF0B2
:1016F8000F0BDF6E010120EE03F00851D9260951C6
:10170800DA220001D35183EC0EF001010A6F0101C6
:101718000A390F0B0F0BDF6E010120EE04F00851A0
:10172800D9260951DA22335083EC0EF00F0BDF6E05
:10173800010120EE05F00851D9260951DA2233506B
:1017480083EC0EF001010A6F01010A390F0B0F0B30
:10175800DF6E1200000E296E010103AF07D00101F0
:10176800026D031FD8B0032B010E296E010101AFD2
:1017780007D00101006D011FD8B0012B010E291AF5
:10178800000E2B6E000E2A6E010102510101031199
:10179800D8B427D0010E286E05D00101D8900237A1
:1017A8000337282A010103AFF8D7D8902A362B36F9
:1017B800010102510101005D0101035101010159BB
:1017C800D8A009D0010102510101005F01010351B4
:1017D8000101015B2A800101D89003330233282ECE
:1017E800E4D72950D8B404D02A6C2B1ED8B02B2AA1
:1017F8002AC000F12BC001F11200000E296E010170
:1018080001AF07D00101006D011FD8B0012B010EF7
:10181800296E010103AF05D00101026D031FD8B085
:10182800032B0101025101010311D8B423D0010E89
:10183800286E05D00101D89002370337282A010104
:1018480003AFF8D7010102510101005D0101035105
:1018580001010159D8A008D0010102510101005F1E
:10186800010103510101015B0101D89003330233E7
:10187800282EE8D72950D8B405D00101006D011FE2
:10188800D8B0012B00C100F101C101F11200000123
:10189800D35183EC0EF00F0B00C1D9FF01C1DAFF61
:1018A800DF6E010120EE01F00051D9260151DA2244
:1018B8000001D35183EC0EF02A6E2A380F0B0F0B60
:1018C800DF6E010120EE02F00051D9260151DA2223
:1018D800335083EC0EF00F0BDF6E010120EE03F0A6
:1018E8000051D9260151DA22335083EC0EF02A6ECA
:1018F8002A380F0B0F0BDF6E010120EE04F00051A8
:10190800D9260151DA224E0EDF6E010120EE05F0D4
:101918000051D9260151DA22440EDF6E120000016F
:10192800D35183EC0EF00F0B00C1D9FF01C1DAFFD0
:10193800DF6E010120EE01F00051D9260151DA22B3
:101948000001D35183EC0EF02A6E2A380F0B0F0BCF
:10195800DF6E010120EE02F00051D9260151DA2292
:10196800335083EC0EF00F0BDF6E010120EE03F015
:101978000051D9260151DA22335083EC0EF02A6E39
:101988002A380F0B0F0BDF6E010120EE04F0005117
:10199800D9260151DA22500EDF6E010120EE05F042
:1019A8000051D9260151DA22550EDF6E1200000EC1
:1019B800066E04AE06D0036C041ED8B0042A010ECD
:1019C800066E02AE06D0016C021ED8B0022A010EC5
:1019D800061A000E086E000E076E03500410D8B4E5
:1019E8001CD0010E056E04D0D89003360436052AA3
:1019F80004AEFAD7D890073608360350015C045075
:101A08000258D8A005D00350015E0450025A07803E
:101A1800D89004320332052EEDD70650D8B404D03E
:101A2800076C081ED8B0082A07C001F008C002F0E9
:101A380012000101036F000E0101046FD1EC0FF0D9
:101A480001010351CCEC0DF0CFEC0FF0000E0101B9
:101A5800066F000E056F010106BF08D0010106518F
:101A680024E1080E0101055DD8B01FD08094060E50
:101A7800E82EFED700D005C12AF080A603D02B6A35
:101A88002B2A01D02B6A2A2A02D0D8902B362A2E4C
:101A9800FCD72B50010104138084100EE82EFED7CA
:101AA80000D00101054B062BD6D7C3EC0FF001017E
:101AB80004511200000E066E02AE06D0016C021E22
:101AC800D8B0022A010E066E04AE04D0036C041EC0
:101AD800D8B0042A03500410D8B418D0010E056EEB
:101AE80004D0D89003360436052A04AEFAD703503A
:101AF800015C04500258D8A004D00350015E045081
:101B0800025AD89004320332052EF1D70650D8B4C1
:101B180004D0016C021ED8B0022A01C001F002C034
:101B280002F0120093969398000EBA6E000EC66EDD
:101B38000F0EC16E880EF26E000EF26EF28EF28CEF
:101B4800F286F28A850EF16EF180820ED56E000E55
:101B5800CD6ECD8ECD50CD50CD50CD50CD50000E48
:101B68009D6E9D8093929294929A9296000E000197
:101B7800D56F000ED46F000E2D6E000E2C6E3B0E2E
:101B8800376E3B0E366E660E356E000E2E6E1200E8
:101B98000101006FCDEC0FF0000E0101026F000E85
:101BA800016F010102BF08D00101025123E1080EB3
:101BB8000101015DD8B0120001C128F000C129F06F
:101BC800282A02D0D8902932282EFCD72930D8A02C
:101BD80002D0808601D080968084100EE82EFED731
:101BE80000D08094060EE82EFED700D00101014BEC
:101BF800022BD7D71200036ED9EC0FF0000E056E3A
:101C0800000E046E05BE06D0055021E1080E045CE6
:101C1800D8B0120004C001F003C002F0012A02D0BB
:101C2800D8900232012EFCD70230D8A002D080868C
:101C380001D080968084100EE82EFED700D08094C4
:101C4800060EE82EFED700D0044A052ADBD712007C
:101C5800036E010E046E000E076E000E066E07BEC0
:101C680006D0075020E1080E065CD8B01200000E1E
:101C7800056E06C001F003C002F0012A02D0D89018
:101C88000232012EFCD70230D8B004A002D0010ED7
:101C9800056E05B002D0819601D081868198818831
:101CA800064A072ADCD71200286E2850D8B423D059
:101CB8002804D8B420D0020E2818D8B41CD0030E9B
:101CC8002818D8B418D0040E2818D8B414D0050E83
:101CD8002818D8B410D0060E2818D8B40CD0070E7F
:101CE8002818D8B408D0080E2818D8B404D0090E7B
:101CF8002818D8A402D0010E1200000E1200296E76
:101D0800000E286E0A0E296003D029C028F020D0C2
:101D1800140E296004D02950F60F100918D01E0E91
:101D2800296004D02950EC0F200911D0280E296011
:101D380004D02950E20F30090AD0320E296004D0AD
:101D48002950D80F400903D02950CE0F5009286ECA
:101D580028501200026E000E016E0A0E026003D0B7
:101D680002C001F020D0140E026004D00250F60F19
:101D7800100918D01E0E026004D00250EC0F200982
:101D880011D0280E026004D00250E20F30090AD0A8
:101D9800320E026004D00250D80F400903D002501E
:101DA800CE0F5009016E015012000101076F000E9D
:101DB8000101066F07C100F10101016B000E01016D
:101DC800036F0A0E026F01EC0CF000C104F101C1AF
:101DD80005F107C100F10101016B000E0101036F5C
:101DE8000A0E026FAEEC0BF001010039F00B010195
:101DF80004110101066F0101065112000350D8A415
:101E080011D001500210D8B40AD0050E01180210E2
:101E1800D8B405D00C0E01180210D8A403D0D3EC06
:101E28000FF01200050E0318D8A41200015002107A
:101E3800D8A41200050E01180210D8B41200D5EC6F
:101E48000FF012000350D8A411D001500210D8B4DA
:101E58000AD0050E01180210D8B405D00C0E0118CE
:101E68000210D8A403D0BFEC0FF01200050E03181F
:101E7800D8A4120001500210D8A41200050E0118AF
:101E88000210D8B41200BBEC0FF012000A6E0A5010
:101E9800AEEC0EF00B6E0850AEEC0EF00C6E095066
:101EA80082EC0FF00D6E0BC006F0800EABEC0FF05D
:101EB8000CC006F0820EABEC0FF00DC006F0840EDD
:101EC800ABEC0FF01200000E0B6E000E0A6E0BBE8C
:101ED80006D00B5012E1060E0A5CD8B012000A5068
:101EE8000824D96E0B500920DA6EDF50F5EC0AF0A1
:101EF8002CEC0EF00A4A0B2AEAD71200026E000EEA
:101F0800016E0A0E026003D002C001F00BD0140E5D
:101F1800026004D00250F60F100903D00250EC0FF3
:101F28002009016E0150120000EE9CF0380EEE6A96
:101F3800E806FDE100EE2CF0090EEE6AE806FDE188
:101F480038903892000EF86E0001DCEF03F0076E4F
:101F5800DBEC0FF00750FFEC0DF00650FFEC0DF036
:101F6800C6EC0FF01200000E0001C66F1200000E42
:101F78000001C66F1200010E0001C66F1200809AA0
:101F880080941200809A80941200CD801200CD9027
:101F980012009296120092861200808A12008182A4
:101FA800120081921200CD80120092961200808A4F
:041FB8001200120001
:020000040020DA
:08000000FFFFFFFFFFFFFFFF00
:020000040030CA
:0E000000000C1F1FFF8185FF0FC00FE00F4097
:00000001FF
