:0400000007EF00F016
:100008005C825FED01F0CDEF05F002EC06F09FECAD
:1000180005F0010E0001766F020E0001776F030EE6
:100028000001786F040E0001796F050E00017A6FE8
:10003800060E00017B6F73C05AF074C05BF020D1CC
:10004800760E00016B6F000E00016C6F3BEC03F045
:10005800760E0001676F000E0001686F5EEC05F018
:100068000D0E0001726FAF0E0001716FB60EE82E13
:10007800FED7712FFCD7722FFAD700F0E6EC05F007
:100088000D0E0001726FAF0E0001716FB60EE82EF3
:10009800FED7712FFCD7722FFAD700F0E6EC05F0E7
:1000A800CAD700017551A8EC04F00009D8B406D0ED
:1000B800030E0001756102D075C079F0760E00015B
:1000C800676F000E0001686F5EEC05F00D0E000111
:1000D800726FAF0E0001716FB60EE82EFED7712F4A
:1000E800FCD7722FFAD700F07AC067F0560E0001DD
:1000F800686F78C069F077C06AF076C06BF000016D
:100108007B5137EC05F00D0E0001726FAF0E000148
:10011800716FB60EE82EFED7712FFCD7722FFAD763
:10012800ADD000017551A8EC04F00009D8B40ED088
:10013800020E0001796104D0090E0001756504D032
:10014800040E0001756102D075C078F0760E0001CA
:10015800676F000E0001686F5EEC05F00D0E000180
:10016800726FAF0E0001716FB60EE82EFED7712FB9
:10017800FCD7722FFAD700F07AC067F079C068F020
:10018800560E0001696F77C06AF076C06BF0000107
:100198007B5137EC05F00D0E0001726FAF0E0001B8
:1001A800716FB60EE82EFED7712FFCD7722FFAD7D3
:1001B80065D0760E0001676F000E0001686F5EEC77
:1001C80005F00D0E0001726FAF0E0001716FB60ED3
:1001D800E82EFED7712FFCD7722FFAD700F07AC01D
:1001E80067F079C068F078C069F0560E00016A6F50
:1001F80076C06BF000017B5137EC05F00D0E000165
:10020800726FAF0E0001716FB60EE82EFED7712F18
:10021800FCD7722FFAD732D0760E0001676F000E26
:100228000001686F5EEC05F00D0E0001726FAF0EF5
:100238000001716FB60EE82EFED7712FFCD7722F12
:10024800FAD700F07AC067F079C068F078C069F032
:1002580077C06AF0560E00016B6F00017B5137ECD6
:1002680005F00D0E0001726FAF0E0001716FB60E32
:10027800E82EFED7712FFCD7722FFAD700F0DBD605
:100288005AC071F05BC072F000017251000AD8A424
:10029800D2D600017151000AD8B4D2D6010AD8B416
:1002A80000D7030AD8B43DD7010AD8B482D7070AC1
:1002B800D8B4B2D7C0D60600FACF18F0FBCF19F0E1
:1002C800E9CF1AF0EACF1BF0E1CF1CF0E2CF1DF026
:1002D800D9CF1EF0DACF1FF0F3CF20F0F4CF21F002
:1002E800F6CF22F0F7CF23F0F8CF24F0F5CF25F0A2
:1002F800F2A074D0F29E000E556E020E166E080E15
:10030800156EA00EE82EFED7152EFCD7162EFAD79E
:10031800000E596E000E586E59BE06D0595018E19D
:100328002F0E585CD8B014D0260E5824D96E000E63
:100338005920DA6E000E81BA010EDF6E040E156EBA
:10034800D40EE82EFED7152EFCD7584A592AE4D7E2
:10035800000E576E000E566E000E596E000E586E47
:1003680059BE06D059501DE1100E585CD8B019D0AE
:1003780058C015F0260E5824D96E000E5920DA6E92
:10038800DF50166E176A152A03D0D890163617361E
:10039800152EFBD71650561217505712584A592A7D
:1003A800DFD7562803E15728D8B416D056C001F035
:1003B80057C002F010EC02F00001756F5AC00EF041
:1003C8005BC00FF056C010F057C011F0B1EC02F04E
:1003D8000EC073F00FC074F0F290F28E25C0F5FFD6
:1003E80024C0F8FF23C0F7FF22C0F6FF21C0F4FFA6
:1003F80020C0F3FF1FC0DAFF1EC0D9FF1DC0E2FFF7
:100408001CC0E1FF1BC0EAFF1AC0E9FF19C0FBFFCF
:1004180018C0FAFF5C92110035D00A0E056E120062
:100428000B0E056E12000C0E056E12000D0E056EF9
:1004380012000E0E056E1200010E056E1200020E5D
:10044800056E1200030E056E1200040E056E1200F2
:10045800050E056E1200060E056E1200070E056EDB
:100468001200080E056E1200090E056E1200000E2D
:10047800056E12000F0E056E1200100E056E1200AA
:10048800FF0E120001C003F002C004F00450110A6C
:10049800D8B41CD07F0AD8B41ED0C40AD8B423D08C
:1004A800010AD8B42BD0050AD8B430D0140AD8B46D
:1004B80035D0010AD8B437D0510AD8B43CD0010A93
:1004C800D8B43ED0050AD8B443D0DAD70350110ABD
:1004D800D8B4B8D7D5D70350B90AD8B4C5D7500AB5
:1004E800D8B4BFD7CDD70350BA0AD8B4C3D7530AA4
:1004F800D8B49CD7070AD8B49CD7C2D70350A90A46
:10050800D8B4ACD7100AD8B488D7BAD70350BA0A27
:10051800D8B4B3D7530AD8B498D7B2D70350BA0AC5
:10052800D8B4A5D7ADD70350A90AD8B491D7100A23
:10053800D8B491D7A5D70350A90AD8B471D7A0D7F2
:100548000350AD0AD8B46FD7170AD8B475D798D75F
:100558000350AE0AD8B473D793D70E500F10D8A44F
:1005680007D0BA0E101804E1AA0E1118D8B43ED05C
:100578000E040F10D8A40CD0EE0E101809E1AA0E24
:100588001118D8A405D0000E0001746F020E32D0E5
:10059800020E0E180F10D8A40CD0EE0E101809E198
:1005A800AA0E1118D8A405D0000E0001746F030E0E
:1005B80021D0030E0E180F10D8A40CD0EE0E101870
:1005C80009E1AA0E1118D8A405D0000E0001746F15
:1005D800040E10D0040E0E180F10D8A40DD0EE0E75
:1005E80010180AE1AA0E1118D8A406D0000E0001AE
:1005F800746F010E736F36D00E040F10D8B40FD07D
:10060800020E0E180F10D8B40AD0030E0E180F10D1
:10061800D8B405D0040E0E180F10D8A423D0BA0EE3
:10062800101820E1AE0E1118D8A41CD0000E00013D
:10063800746F000E736F000E126E000177510A0D71
:10064800F35000017625136E000179510A0DF3501D
:1006580000017825146E13C008F014C009F0125078
:1006680082EC05F073C00EF074C00FF01200810E1A
:100678000001706F00017051ECEC03F000016D6F28
:10068800830E0001706F00017051ECEC03F0000163
:100698006E6F850E0001706F00017051ECEC03F075
:1006A80000016F6F00016E510F0B6BC0D9FF6CC05A
:1006B800DAFFDF6E000120EE01F06B51D9266C5194
:1006C800DA2200016E390F0B0F0BDF6E000120EEEE
:1006D80002F06B51D9266C51DA2200016F510F0BD1
:1006E800DF6E000120EE03F06B51D9266C51DA223F
:1006F80000016F390F0B0F0BDF6E000120EE04F0C5
:100708006B51D9266C51DA22010EDF6E000120EE02
:1007180005F06B51D9266C51DA22480EDF6E1200B3
:100728000001606F22D0300E12006D0E1200790E9B
:100738001200330E12005B0E12005F0E1200700ED4
:1007480012007F0E1200730E12007E0E12003E0E73
:100758001200670E1200370E12003D0E1200150E21
:100768001200000E12007F0E120000016051000AF4
:10077800D8B4EBD7010AD8B4D6D7030AD8B4D5D79A
:10078800010AD8B4D4D7070AD8B4D3D7010AD8B441
:10079800D2D7030AD8B4D1D7010AD8B4D0D70F0A10
:1007A800D8B4CFD7010AD8B4CED74D0AD8B4D5D744
:1007B8000C0AD8B4D0D7060AD8B4D1D71E0AD8B4F0
:1007C800C8D7050AD8B4C3D7030AD8B4CAD7CBD771
:1007D8000001676F000E0001686FFCEC05F0000176
:1007E800675170EC04F0FAEC05F0000E00016A6F36
:1007F800000E696F00016ABF08D000016A512AE142
:10080800080E0001695DD8B025D08094060EE82E48
:10081800FED700D069C065F080A604D00001666BE1
:10082800662B02D00001666B0001652B03D0000126
:10083800D89066370001652FFAD70001665100018C
:1008480068138084100EE82EFED700D00001694B93
:100858006A2BD0D7EEEC05F00001685112000001B8
:10086800626F010E0001636F000E0001666F000EDB
:10087800656F000166BF08D0000166512CE1080EC3
:100888000001655DD8B01200000E0001646F65C0FC
:1008980060F062C061F00001602B03D00001D890C5
:1008A80061330001602FFAD7000161310001D8A03F
:1008B80006D0000163A103D0010E0001646F00019E
:1008C80064B102D0819601D0818681988188000127
:1008D800654B662BCED712000001626FF8EC05F06D
:1008E800000E0001646F000E636F000164BF08D042
:1008F8000001645128E1080E0001635DD8B01200C0
:1009080063C060F062C061F00001602B03D0000199
:10091800D89061330001602FFAD7000161310001DE
:10092800D8A002D0808601D080968084100EE82E50
:10093800FED700D08094060EE82EFED700D0000126
:10094800634B642BD2D712000001606F0001605125
:100958000001D8B42CD000016005D8B428D0020E0C
:1009680000016019D8B423D0030E00016019D8B46F
:100978001ED0040E00016019D8B419D0050E00016C
:100988006019D8B414D0060E00016019D8B40FD07D
:10099800070E00016019D8B40AD0080E00016019CA
:1009A800D8B405D0090E00016019D8A402D0010EF0
:1009B8001200000E1200036EFEEC05F0000E056E2C
:1009C800000E046E05BE06D0055021E1080E045C39
:1009D800D8B0120004C001F003C002F0012A02D00E
:1009E800D8900232012EFCD70230D8A002D08086DF
:1009F80001D080968084100EE82EFED700D0809417
:100A0800060EE82EFED700D0044A052ADBD71200CE
:100A1800026E000E016E0A0E026003D002C001F0E1
:100A280020D0140E026004D00250F60F100918D01E
:100A38001E0E026004D00250EC0F200911D0280EBF
:100A4800026004D00250E20F30090AD0320E026070
:100A580004D00250D80F400903D00250CE0F5009DD
:100A6800016E0150120000016C6F00016B5194EC93
:100A780003F033EC04F000016A5194EC03F033EC1A
:100A880004F00001695194EC03F033EC04F0000128
:100A9800685194EC03F033EC04F00001675194ECD6
:100AA80003F033EC04F000016C5194EC03F033ECE8
:100AB80004F01200000E00016A6F000E696F000159
:100AC8006ABF08D000016A5118E1060E0001695D8D
:100AD800D8B012000001695100016725D96E0001E4
:100AE8006A5100016821DA6EDF5094EC03F033ECB0
:100AF80004F00001694B6A2BE2D712000A6E0A5013
:100B08000CEC05F00B6E08500CEC05F00C6E09505F
:100B1800B7EC05F00D6E0BC006F0800EDAEC05F0B0
:100B28000CC006F0820EDAEC05F00DC006F0840E5B
:100B3800DAEC05F0120093969398000EBA6E000E48
:100B4800C66E0F0EC16E880EF26E93929294929AB0
:100B58009296000E5B6E000E5A6E000E0001746FC6
:100B6800000E736F1200026E000E016E0A0E026014
:100B780003D002C001F00BD0140E026004D0025062
:100B8800F60F100903D00250EC0F2009016E015036
:100B9800120000EE73F0090EEE6AE806FDE15C90C3
:100BA8005C92000EF86E000109EF00F0076E00EC91
:100BB80006F00750DFEC04F00650DFEC04F0F1EC2F
:100BC80005F0120081B203D0F4EC05F01200F6EC47
:100BD80005F01200809A80941200809A8094120086
:100BE800818212008192120092961200928612005F
:0E0BF800808A120092961200808A120012006B
:020000040020DA
:08000000FFFFFFFFFFFFFFFF00
:020000040030CA
:0E000000000C1F1FFF8185FF0FC00FE00F4097
:00000001FF
