:0400000007EF00F016
:100008003A8209ED00F01CEF07F00600FACF18F06D
:10001800FBCF19F0E9CF1AF0EACF1BF0E1CF1CF0C3
:10002800E2CF1DF0D9CF1EF0DACF1FF0F3CF20F0CA
:10003800F4CF21F0F6CF22F0F7CF23F0F8CF24F059
:10004800F5CF25F0F2A089D0F29E000E0001956F41
:10005800020E166E090E156E460EE82EFED7152EE8
:10006800FCD7162EFAD7000E0001996F000E986F74
:10007800000199BF08D0000199511DE12F0E000120
:10008800985DD8B018D0600E00019825D96E000E82
:1000980000019921DA6E000E81BA010EDF6E040E9E
:1000A800156EAA0EE82EFED7152EFCD700F000011B
:1000B800984B992BDDD7000E0001976F000E966FB5
:1000C800000E0001996F000E986F000199BF08D0CB
:1000D8000001995123E1100E0001985DD8B01ED09F
:1000E80098C015F0600E00019825D96E000E000129
:1000F8009921DA6EDF50166E176A152A03D0D89048
:1001080016361736152EFBD71650000196131750C2
:10011800000197130001984B992BD7D70001962916
:1001280004E100019729D8B415D096C001F097C012
:1001380002F010EC03F0396EB2C00EF0B3C00FF04D
:1001480096C010F097C011F04DEC02F00EC037F0D9
:100158000FC038F0F290F28EBBD0F2A4A4D0000EFB
:1001680000019B6F000E9A6F00019BBF08D0000131
:100178009B511BE1060E00019A5DD8B016D0AB0E5C
:1001880000019A25D96E000E00019B21DA6EA50E9A
:1001980000019A25E16E000E00019B21E26EDFCF7F
:1001A800E7FF00019A4B9B2BDFD7090E0001A261E4
:1001B80003D00001A22901D0000E0001A26F000E99
:1001C80000019B6F000E9A6F00019BBF08D00001D1
:1001D8009B510BE1060E00019A5DD8B006D09AC07B
:1001E80095F000019A4B9B2BEFD7B2C001F0B3C03A
:1001F80002F0A2C003F086EC06F0B2C001F0B3C072
:1002080002F0A2C003F0AAEC06F00001A251D8A4A3
:1002180003D050EC07F00CD0050E0001A219D8A4A9
:1002280007D00001B2510001B311D8B452EC07F065
:100238000001A451D8B405D081A002D0819001D08A
:100248008180040E0001A26526D010D0560E000150
:10025800A86F21D0560E0001A76F1DD0560E0001C1
:10026800A66F19D0560E0001A56F15D0B2C015F0B3
:10027800B3C016F01650000AD8A40DD01550010AC4
:10028800D8B4E4D7030AD8B4E5D7010AD8B4E6D776
:10029800070AD8B4E7D7A50E086E000E096EEBEC76
:1002A80006F0F29415D09EA013D0090E0001A361A8
:1002B80003D00001A32B0BD0000E0001A36FB10ED9
:1002C800016E000E026E0001B251D1EC04F09E9056
:1002D80025C0F5FF24C0F8FF23C0F7FF22C0F6FFB2
:1002E80021C0F4FF20C0F3FF1FC0DAFF1EC0D9FFF2
:1002F8001DC0E2FF1CC0E1FF1BC0EAFF1AC0E9FFF6
:1003080019C0FBFF18C0FAFF3A9211005AEC07F027
:1003180051EC05F0010E0001AB6F020E0001AC6F4D
:10032800030E0001AD6F040E0001AE6F050E000153
:10033800AF6F060E0001B06F010E0001A16F38EC1F
:1003480007F037C0B2F038C0B3F07CD00D0E3918C2
:10035800D8A402D0010E05D00E0E3918D8A403D0A7
:10036800000E0001A16FAB0E00019C6F000E000192
:100378009D6FA1C09EF0A7EC03F0E3D7395005ECC0
:1003880006F00009D8B4DDD7030E3960DAD739C0D2
:10039800AEF0000E386E020E35D03968D2D739501B
:1003A80005EC06F00009D8B4CCD7020E0001AD6107
:1003B80003D0090E396403D0040E3960C2D739C09E
:1003C800ADF0000E386E030E1DD0395005EC06F066
:1003D8000009D8B4B6D7060E3960B3D739C0ACF027
:1003E800000E386E040E0ED0395005EC06F00009E8
:1003F800D8B4A7D70A0E3960A4D739C0ABF0000E1D
:10040800386E010E376EC9D70A0E0001B16FAB0EF8
:1004180000019C6F000E00019D6F80EC04F091D7E5
:10042800AB0E00019C6F000E00019D6F80EC04F084
:1004380088D7AB0E00019C6F000E00019D6F80EC09
:1004480004F07FD7B2C09FF0B3C0A0F00001A05164
:10045800000AD8A476D700019F51000AD8B476D7ED
:10046800010AD8B48BD7030AD8B499D7010AD8B4EB
:10047800ACD7070AD8B4B8D7010AD8B4C5D7030A85
:10048800D8B45FD70D0AD8B4CBD7070AD8B4D1D718
:1004980058D70E500F10D8A40BD0BA0E101808E178
:1004A800AA0E1118D8A404D0000E386E010EAED0D2
:1004B8000E500F10D8A40BD0BA0E101808E1AB0ECE
:1004C8001118D8A404D0000E386E050E9FD00E5017
:1004D8000F10D8A40BD0AE0E101808E1EB0E1118AF
:1004E800D8A404D0000E386E060E90D00E040F105B
:1004F800D8A40BD0EE0E101808E1AA0E1118D8A433
:1005080004D0000E386E020E81D0020E0E180F10A5
:10051800D8A40BD0EE0E101808E1AA0E1118D8A412
:1005280004D0000E386E030E71D0030E0E180F1093
:10053800D8A40BD0EE0E101808E1AA0E1118D8A4F2
:1005480004D0000E386E040E61D0040E0E180F1081
:10055800D8A407D0EE0E101804E1AA0E1118D8B4CA
:10056800A3D70E040F10D8B40FD0020E0E180F1018
:10057800D8B40AD0030E0E180F10D8B405D0040E44
:100588000E180F10D8A423D0BA0E101820E1AE0E02
:100598001118D8A41CD0000E386E000E376E000E4D
:1005A800126E0001AC510A0DF3500001AB25136E19
:1005B8000001AE510A0DF3500001AD25146E13C0B1
:1005C80008F014C009F01250CEEC06F020D0050E49
:1005D8000E180F10D8A40ED0AA0E10180BE1EA0EB0
:1005E8001118D8A407D0000E386E0B0E376E54ECD5
:1005F80007F00DD00B0E0E180F10D8A408D000016C
:10060800B151D8A404D0000E386E0C0E376E37C026
:100618000EF038C00FF0120035D00A0E056E120029
:100628000B0E056E12000C0E056E12000D0E056EF7
:1006380012000E0E056E1200010E056E1200020E5B
:10064800056E1200030E056E1200040E056E1200F0
:10065800050E056E1200060E056E1200070E056ED9
:100668001200080E056E1200090E056E1200000E2B
:10067800056E12000F0E056E1200100E056E1200A8
:10068800FF0E120001C003F002C004F00450AA0AD1
:10069800D8B416D0010AD8B41ED0050AD8B423D0CD
:1006A800140AD8B428D0010AD8B42AD0510AD8B428
:1006B80032D0010AD8B434D0050AD8B439D0E0D73A
:1006C8000350BA0AD8B4D6D7500AD8B4AFD7040A58
:1006D800D8B4AFD7D5D70350AA0AD8B4BFD7100A11
:1006E800D8B49BD7CDD70350BA0AD8B4C6D7500AC6
:1006F800D8B4ABD7C5D70350BA0AD8B4B8D7C0D77F
:100708000350AA0AD8B4A4D7040AD8B49BD7140AA9
:10071800D8B4A1D7B5D70350AA0AD8B481D7B0D7CF
:100728000350AE0AD8B47FD7140AD8B485D7A8D74F
:100738000350AE0AD8B483D7140AD8B495D7500A50
:10074800D8B48FD79DD7810E356E35501AEC05F089
:10075800326E830E356E35501AEC05F0346E850E08
:10076800356E35501AEC05F0366E34500F0B9CC0C0
:10077800D9FF9DC0DAFFDF6E000120EE01F09C5129
:10078800D9269D51DA2234380F0B0F0BDF6E00018A
:100798009E05D8A40AD0000120EE04F09C51D92669
:1007A8009D51DA22010EDF6E17D0000120EE04F011
:1007B8009C51D9269D51DA22020EDF6E36C031F0E7
:1007C8000F0E311636380F0B0F0B0A0DF35031246C
:1007D800336E0D0E336015D0000120EE02F09C51EF
:1007E800D9269D51DA2236500F0BDF6E000120EE1C
:1007F80003F09C51D9269D51DA2236380F0B0F0B86
:100808001AD0000120EE02F09C51D9269D51DA221F
:1008180036500F0BFE0FDF6E000120EE03F09C51E7
:10082800D9269D51DA2236C031F0313A0F0E3116F1
:100838000F0E31163104DF6E000120EE05F09C51D9
:10084800D9269D51DA22480EDF6E1200016E22D0A1
:10085800300E12006D0E1200790E1200330E1200C7
:100868005B0E12005F0E1200700E12007F0E120057
:10087800730E12007E0E12003E0E1200670E12005A
:10088800370E12003D0E1200150E1200000E120057
:100898007F0E12000150000AD8B4ECD7010AD8B470
:1008A800D7D7030AD8B4D6D7010AD8B4D5D7070AF8
:1008B800D8B4D4D7010AD8B4D3D7030AD8B4D2D776
:1008C800010AD8B4D1D70F0AD8B4D0D7010AD8B4FE
:1008D800CFD74D0AD8B4D6D70C0AD8B4D1D7060A80
:1008E800D8B4D2D71E0AD8B4C9D7050AD8B4C4D741
:1008F800030AD8B4CBD7CCD7810E356E35501AEC55
:1009080005F0326E830E356E35501AEC05F0336EF5
:10091800850E356E35501AEC05F0346E0001B15174
:1009280030EC06F00F0B9CC0D9FF9DC0DAFFDF6EDC
:10093800000120EE01F09C51D9269D51DA220001D8
:10094800B15130EC06F0316E31380F0B0F0BDF6E02
:10095800000120EE02F09C51D9269D51DA22000EAA
:10096800DF6E000120EE03F09C51D9269D51DA225A
:10097800000EDF6E000120EE04F09C51D9269D5137
:10098800DA22500EDF6E000120EE05F09C51D926C8
:100998009D51DA22550EDF6E1200046E050E041802
:1009A800D8A407D001C0D9FF02C0DAFF0A0EDF6E53
:1009B80012000B0E0418D8A421D001C0D9FF02C020
:1009C800DAFFDF50D8B413D001C0D9FF02C0DAFF74
:1009D800030EDF6406D001C0D9FF02C0DAFFDF06CC
:1009E800120001C0D9FF02C0DAFFDF06120001C001
:1009F800D9FF02C0DAFF0A0EDF6E12000C0E0418CF
:100A0800D8A4120001C0D9FF02C0DAFF3B0EDF6094
:100A180006D001C0D9FF02C0DAFFDF2A120001C0E8
:100A2800D9FF02C0DAFF000EDF6E12002D6E000E35
:100A38002E6E4EEC07F02D507FEC05F04CEC07F0D5
:100A4800000E306E000E2F6E30BE06D0305021E101
:100A5800080E2F5CD8B01DD08094060EE82EFED765
:100A680000D02FC02BF080A603D02C6A2C2A01D0EE
:100A78002C6A2B2A02D0D8902C362B2EFCD72C503F
:100A88002E128084100EE82EFED700D02F4A302A6E
:100A9800DBD744EC07F02E50120093969398000E83
:100AA800BA6E000EC66E0F0EC16E880EF26E000E84
:100AB800F26EF28EF28CF286F28A850EF16EF18079
:100AC800820ED56E000ECD6ECD8ECD8ACD88CD50DE
:100AD800CD50CD50000E9D6E9D8093929294929A27
:100AE8009296000E0001B36F000EB26F000E386EC2
:100AF800000E376E1200286E4AEC07F0000E2A6EC0
:100B0800000E296E2ABE06D02A5021E1080E295C63
:100B1800D8B0120029C026F028C027F0262A02D013
:100B2800D8902732262EFCD72730D8A002D080862E
:100B380001D080968084100EE82EFED700D08094D5
:100B4800060EE82EFED700D0294A2A2ADBD7120043
:100B5800036E56EC07F0000E056E000E046E05BE1F
:100B680006D0055021E1080E045CD8B0120004C07C
:100B780001F003C002F0012A02D0D8900232012EFF
:100B8800FCD70230D8A002D0808601D0809680841D
:100B9800100EE82EFED700D08094060EE82EFED761
:100BA80000D0044A052ADBD71200036E010E046E3A
:100BB800000E076E000E066E07BE06D0075020E135
:100BC800080E065CD8B01200000E056E06C001F0D3
:100BD80003C002F0012A02D0D8900232012EFCD7BD
:100BE8000230D8B004A002D0010E056E05B002D0C4
:100BF800819601D0818681988188064A072ADCD7A8
:100C08001200266E2650D8B423D02604D8B420D09B
:100C1800020E2618D8B41CD0030E2618D8B418D043
:100C2800040E2618D8B414D0050E2618D8B410D03F
:100C3800060E2618D8B40CD0070E2618D8B408D03B
:100C4800080E2618D8B404D0090E2618D8A402D045
:100C5800010E1200000E1200276E000E266E0A0EFC
:100C6800276003D027C026F020D0140E276004D0B8
:100C78002750F60F100918D01E0E276004D02750F1
:100C8800EC0F200911D0280E276004D02750E20F5E
:100C980030090AD0320E276004D02750D80F4009F7
:100CA80003D02750CE0F5009266E26501200026E30
:100CB800000E016E0A0E026003D002C001F020D0BF
:100CC800140E026004D00250F60F100918D01E0E40
:100CD800026004D00250EC0F200911D0280E0260E7
:100CE80004D00250E20F30090AD0320E026004D05C
:100CF8000250D80F400903D00250CE0F5009016EA0
:100D0800015012000350D8A411D001500210D8B4D9
:100D18000AD0050E01180210D8B405D00C0E01181F
:100D28000210D8A403D050EC07F01200050E0318E7
:100D3800D8A4120001500210D8A41200050E011800
:100D48000210D8B4120052EC07F012000350D8A4D5
:100D580011D001500210D8B40AD0050E01180210A3
:100D6800D8B405D00C0E01180210D8A403D040EC5A
:100D780007F01200050E0318D8A412000150021043
:100D8800D8A41200050E01180210D8B412003CECC9
:100D980007F012000A6E0A505BEC06F00B6E085062
:100DA8005BEC06F00C6E095006EC07F00D6E0BC0FC
:100DB80006F0800E2CEC07F00CC006F0820E2CEC2E
:100DC80007F00DC006F0840E2CEC07F01200000EA0
:100DD8000B6E000E0A6E0BBE06D00B5012E1060E0B
:100DE8000A5CD8B012000A500824D96E0B500920AA
:100DF800DA6EDF502AEC04F0D9EC05F00A4A0B2A27
:100E0800EAD71200026E000E016E0A0E026003D0CD
:100E180002C001F00BD0140E026004D00250F60F8D
:100E2800100903D00250EC0F2009016E0150120086
:100E380000EEA2F0100EEE6AE806FDE1396A386AA3
:100E4800376A3A903A92000EF86E00018AEF01F084
:100E5800076E58EC07F00750ACEC05F00650ACEC08
:100E680005F047EC07F01200000E0001A46F120015
:100E7800000E0001A46F1200010E0001A46F120001
:100E8800809A80941200809A8094120092961200A0
:100E980092861200808A12008182120081921200CA
:0E0EA800CD80120092961200808A1200120075
:020000040020DA
:08000000FFFFFFFFFFFFFFFF00
:020000040030CA
:0E000000000C1F1FFF8185FF0FC00FE00F4097
:00000001FF
