:0400000053EF00F0CA
:06000800488255ED00F0F6
:100018004880D8CF60F0E8CF61F0E0CF62F0FACF47
:1000280063F0FBCF64F0E9CF65F0EACF66F0E1CF8B
:1000380067F0E2CF68F0D9CF69F0DACF6AF0F3CF92
:100048006BF0F4CF6CF0F6CF6DF0F7CF6EF0F8CF21
:100058006FF0F5CF70F070C0F5FF6FC0F8FF6EC09D
:10006800F7FF6DC0F6FF6CC0F4FF6BC0F3FF6AC00A
:10007800DAFF69C0D9FF68C0E2FF67C0E1FF66C068
:10008800EAFF65C0E9FF64C0FBFF63C0FAFF62C016
:10009800E0FF61C0E8FF60C0D8FF4890100092EF11
:1000A80003F00600FACF04F0FBCF05F0E9CF06F025
:1000B800EACF07F0E1CF08F0E2CF09F0D9CF0AF094
:1000C800DACF0BF0F3CF0CF0F4CF0DF0F6CF0EF043
:1000D800F7CF0FF0F8CF10F0F5CF11F0F2A0CBD09A
:1000E800F29E000E416E020E026E080E016EA00E08
:1000F800E82EFED7012EFCD7022EFAD7000E456E49
:10010800000E446E45BE06D0455018E12F0E445CE3
:10011800D8B014D0120E4424D96E000E4520DA6EE1
:10012800000E81BA010EDF6E040E016ED40EE82EA9
:10013800FED7012EFCD7444A452AE4D7000E436E69
:10014800000E426E000E456E000E446E45BE06D08F
:1001580045501DE1100E445CD8B019D044C001F0E0
:10016800120E4424D96E000E4520DA6EDF50026E5E
:10017800036A012A03D0D89002360336012EFBD732
:100188000250421203504312444A452ADFD74650D0
:100198004710D8A40CD0BA0E421809E1AE0E431885
:1001A800D8A405D0000E00018C6F010E8B6F460499
:1001B8004710D8A40CD0EE0E421809E1AA0E431835
:1001C800D8A405D0000E00018C6F020E8B6F020EB2
:1001D80046184710D8A40CD0EE0E421809E1AA0E12
:1001E8004318D8A405D0000E00018C6F030E8B6F46
:1001F800030E46184710D8A40CD0EE0E421809E199
:10020800AA0E4318D8A405D0000E00018C6F040E66
:100218008B6F040E46184710D8A40CD0EE0E421867
:1002280009E1AA0E4318D8A405D0000E00018C6F6E
:10023800010E8B6F46044710D8B40FD0020E461833
:100248004710D8B40AD0030E46184710D8B405D0C2
:10025800040E46184710D8A40CD0BA0E421809E16B
:10026800AA0E4318D8A405D0000E00018C6F000E0A
:100278008B6FF290F28E11C0F5FF10C0F8FF0FC01F
:10028800F7FF0EC0F6FF0DC0F4FF0CC0F3FF0BC064
:10029800DAFF0AC0D9FF09C0E2FF08C0E1FF07C0C2
:1002A800EAFF06C0E9FF05C0FBFF04C0FAFF489259
:1002B8001100B1EC03F07AEC03F0010E0001856F38
:1002C800020E0001866F030E0001876F040E000105
:1002D800886F050E0001896F060E00018A6F8BC0BA
:1002E80046F08CC047F064D0850E00017C6F000E8C
:1002F80000017D6FEEEC01F0850E0001786F000EB5
:100308000001796F56EC03F0060E0001836F130E9F
:100318000001826FAD0EE82EFED7822FFCD7832F07
:10032800FAD700D09CEC03F0060E0001836F130E81
:100338000001826FAD0EE82EFED7822FFCD7832FE7
:10034800FAD700D09CEC03F088C084F0850E000139
:10035800786F000E0001796F56EC03F00D0E000166
:10036800836FAF0E0001826FB60EE82EFED7822F84
:10037800FCD7832FFAD700F0000E0001886F850E96
:100388000001786F000E0001796F56EC03F084C00D
:1003980088F00D0E0001836FAF0E0001826FB60E5C
:1003A800E82EFED7822FFCD7832FFAD700F097D7F5
:1003B80046C082F047C083F000018351000AD8A4E8
:1003C8008ED700018251000AD8B48ED7010AD8B45A
:1003D800BBD785D7810E0001816F000181519AEC4E
:1003E80002F000017E6F830E0001816F00018151D0
:1003F8009AEC02F000017F6F850E0001816F000109
:1004080081519AEC02F00001806F00017F510F0BBF
:100418007CC0D9FF7DC0DAFFDF6E000120EE01F05D
:100428007C51D9267D51DA2200017F390F0B0F0B41
:10043800DF6E000120EE02F07C51D9267D51DA22D0
:10044800000180510F0BDF6E000120EE03F07C519C
:10045800D9267D51DA22000180390F0B0F0BDF6E90
:10046800000120EE04F07C51D9267D51DA22010EDC
:10047800DF6E000120EE05F07C51D9267D51DA228D
:10048800480EDF6E12000001716F20D0300E12008E
:100498006D0E1200790E1200330E12005B0E120060
:1004A8005F0E1200700E12007F0E1200730E120003
:1004B8007E0E12003E0E1200670E1200370E12005A
:1004C8003D0E1200150E12007F0E12000001715130
:1004D800000AD8B4EDD7010AD8B4D8D7030AD8B4DB
:1004E800D7D7010AD8B4D6D7070AD8B4D5D7010ABE
:1004F800D8B4D4D7030AD8B4D3D7010AD8B4D2D73A
:100508000F0AD8B4D1D7010AD8B4D0D74D0AD8B475
:10051800D7D70C0AD8B4D2D7060AD8B4D3D71E0A6C
:10052800D8B4CAD7050AD8B4C5D7CED70001786FD2
:10053800000E0001796FAFEC03F0000178511EEC5A
:1005480003F0ADEC03F0000E00017B6F000E7A6F34
:1005580000017BBF08D000017B512AE1080E000191
:100568007A5DD8B025D08094060EE82EFED700D04C
:100578007AC076F080A604D00001776B772B02D082
:100588000001776B0001762B03D00001D8907737F4
:100598000001762FFAD70001775100017913808482
:1005A800100EE82EFED700D000017A4B7B2BD0D757
:1005B800A4EC03F00001795112000001736F010EE1
:1005C8000001746F000E0001776F000E766F000156
:1005D80077BF08D0000177512CE1080E0001765D45
:1005E800D8B01200000E0001756F76C071F073C0AC
:1005F80072F00001712B03D00001D8907233000112
:10060800712FFAD7000172310001D8A006D000017D
:1006180074A103D0010E0001756F000175B102D0FD
:10062800819601D08186819881880001764B772B4D
:10063800CED712000001736FABEC03F0000E00017F
:10064800756F000E746F000175BF08D000017551F9
:1006580028E1080E0001745DD8B0120074C071F072
:1006680073C072F00001712B03D00001D89072336F
:100678000001712FFAD7000172310001D8A002D011
:10068800808601D080968084100EE82EFED700D098
:100698008094060EE82EFED700D00001744B752B0F
:1006A800D2D71200000E00017B6F000E7A6F000196
:1006B8007BBF08D000017B5118E1060E00017A5D6E
:1006C800D8B0120000017A5100017825D96E0001D6
:1006D8007B5100017921DA6EDF5047EC02F0E1EC42
:1006E80002F000017A4B7B2BE2D712009396939885
:1006F800000EBA6E000EC66E0F0EC16E880EF26E38
:1007080093929294929A9296000E476E000E466EBD
:10071800000E00018C6F000E8B6F120000018C6BB5
:100728008B6B48904892000EF86E00015DEF01F067
:1007380081B203D0A7EC03F01200A9EC03F0120079
:10074800809A8094120081821200819212009296FF
:0C075800120092861200808A120012002B
:020000040020DA
:08000000FFFFFFFFFFFFFFFF00
:020000040030CA
:0E000000000C1F1FFF8185FF0FC00FE00F4097
:00000001FF
